{
  "address": "0x0364bC2eEeB10072e25A77B3729a07693a287C28",
  "abi": [
    {
      "anonymous": false,
      "inputs": [
        {
          "indexed": true,
          "internalType": "address",
          "name": "userAddress",
          "type": "address"
        },
        {
          "indexed": false,
          "internalType": "string",
          "name": "message",
          "type": "string"
        }
      ],
      "name": "MessageAdded",
      "type": "event"
    },
    {
      "anonymous": false,
      "inputs": [
        {
          "indexed": true,
          "internalType": "address",
          "name": "userAddress",
          "type": "address"
        },
        {
          "indexed": false,
          "internalType": "string",
          "name": "username",
          "type": "string"
        },
        {
          "indexed": false,
          "internalType": "string",
          "name": "encryptedKey",
          "type": "string"
        }
      ],
      "name": "UserAdded",
      "type": "event"
    },
    {
      "inputs": [
        {
          "internalType": "address",
          "name": "_userAddress",
          "type": "address"
        },
        {
          "internalType": "string",
          "name": "_message",
          "type": "string"
        }
      ],
      "name": "addMessage",
      "outputs": [],
      "stateMutability": "nonpayable",
      "type": "function"
    },
    {
      "inputs": [
        {
          "internalType": "address",
          "name": "_userAddress",
          "type": "address"
        },
        {
          "internalType": "string",
          "name": "_username",
          "type": "string"
        },
        {
          "internalType": "string",
          "name": "_encryptedKey",
          "type": "string"
        }
      ],
      "name": "addWallet",
      "outputs": [],
      "stateMutability": "nonpayable",
      "type": "function"
    },
    {
      "inputs": [],
      "name": "getAllUsers",
      "outputs": [
        {
          "internalType": "address[]",
          "name": "",
          "type": "address[]"
        },
        {
          "internalType": "string[]",
          "name": "",
          "type": "string[]"
        },
        {
          "internalType": "string[]",
          "name": "",
          "type": "string[]"
        }
      ],
      "stateMutability": "view",
      "type": "function"
    },
    {
      "inputs": [
        {
          "internalType": "address",
          "name": "_userAddress",
          "type": "address"
        }
      ],
      "name": "getEncryptedKey",
      "outputs": [
        {
          "internalType": "string",
          "name": "",
          "type": "string"
        }
      ],
      "stateMutability": "view",
      "type": "function"
    },
    {
      "inputs": [
        {
          "internalType": "address",
          "name": "_userAddress",
          "type": "address"
        }
      ],
      "name": "getMessages",
      "outputs": [
        {
          "internalType": "string[]",
          "name": "",
          "type": "string[]"
        }
      ],
      "stateMutability": "view",
      "type": "function"
    },
    {
      "inputs": [],
      "name": "getTotalUsers",
      "outputs": [
        {
          "internalType": "uint256",
          "name": "",
          "type": "uint256"
        }
      ],
      "stateMutability": "view",
      "type": "function"
    },
    {
      "inputs": [
        {
          "internalType": "address",
          "name": "_userAddress",
          "type": "address"
        }
      ],
      "name": "getUserInfo",
      "outputs": [
        {
          "components": [
            {
              "internalType": "address",
              "name": "userAddress",
              "type": "address"
            },
            {
              "internalType": "string",
              "name": "username",
              "type": "string"
            },
            {
              "internalType": "string",
              "name": "encryptedKey",
              "type": "string"
            }
          ],
          "internalType": "struct UserKeyStorage.UserKeyInfo",
          "name": "",
          "type": "tuple"
        }
      ],
      "stateMutability": "view",
      "type": "function"
    },
    {
      "inputs": [
        {
          "internalType": "uint256",
          "name": "",
          "type": "uint256"
        }
      ],
      "name": "userKeys",
      "outputs": [
        {
          "internalType": "address",
          "name": "userAddress",
          "type": "address"
        },
        {
          "internalType": "string",
          "name": "username",
          "type": "string"
        },
        {
          "internalType": "string",
          "name": "encryptedKey",
          "type": "string"
        }
      ],
      "stateMutability": "view",
      "type": "function"
    },
    {
      "inputs": [
        {
          "internalType": "address",
          "name": "",
          "type": "address"
        },
        {
          "internalType": "uint256",
          "name": "",
          "type": "uint256"
        }
      ],
      "name": "userMessages",
      "outputs": [
        {
          "internalType": "string",
          "name": "",
          "type": "string"
        }
      ],
      "stateMutability": "view",
      "type": "function"
    },
    {
      "inputs": [
        {
          "internalType": "address",
          "name": "",
          "type": "address"
        }
      ],
      "name": "userToKey",
      "outputs": [
        {
          "internalType": "string",
          "name": "",
          "type": "string"
        }
      ],
      "stateMutability": "view",
      "type": "function"
    }
  ],
  "transactionHash": "0x4376423403ffdd4802923b684a7e12a4d6f7873f36bbbd51f3dffcc3efc021c9",
  "args": [],
  "numDeployments": 1,
  "solcInputHash": "fad6887d58c9c9a3567e7a3ff29e9253",
  "bytecode": "0x608060405234801561001057600080fd5b5061128d806100206000396000f3fe608060405234801561001057600080fd5b506004361061009e5760003560e01c80639be572f6116100665780639be572f614610136578063b2f7132214610147578063bc7aa54d14610167578063e2842d791461017a578063f8dbeb0f1461019157600080fd5b806308eedccd146100a35780634b74a1f1146100ce5780636386c1c7146100ee5780637e1555f91461010e5780639428cda314610123575b600080fd5b6100b66100b1366004610cdf565b6101a4565b6040516100c593929190610d3e565b60405180910390f35b6100e16100dc366004610d9a565b6102f4565b6040516100c59190610dbc565b6101016100fc366004610d9a565b6103a0565b6040516100c59190610dcf565b61012161011c366004610ec5565b6105b9565b005b6100e1610131366004610f38565b610748565b6000546040519081526020016100c5565b61015a610155366004610d9a565b610801565b6040516100c59190610fba565b610121610175366004610fcd565b6108f0565b6101826109ac565b6040516100c59392919061101a565b6100e161019f366004610d9a565b610cc6565b600081815481106101b457600080fd5b6000918252602090912060039091020180546001820180546001600160a01b039092169350906101e390611085565b80601f016020809104026020016040519081016040528092919081815260200182805461020f90611085565b801561025c5780601f106102315761010080835404028352916020019161025c565b820191906000526020600020905b81548152906001019060200180831161023f57829003601f168201915b50505050509080600201805461027190611085565b80601f016020809104026020016040519081016040528092919081815260200182805461029d90611085565b80156102ea5780601f106102bf576101008083540402835291602001916102ea565b820191906000526020600020905b8154815290600101906020018083116102cd57829003601f168201915b5050505050905083565b6001600160a01b038116600090815260016020526040902080546060919061031b90611085565b80601f016020809104026020016040519081016040528092919081815260200182805461034790611085565b80156103945780601f1061036957610100808354040283529160200191610394565b820191906000526020600020905b81548152906001019060200180831161037757829003601f168201915b50505050509050919050565b6103cd604051806060016040528060006001600160a01b0316815260200160608152602001606081525090565b60005b60005481101561059757826001600160a01b0316600082815481106103f7576103f76110bf565b60009182526020909120600390910201546001600160a01b0316036105855760008181548110610429576104296110bf565b6000918252602091829020604080516060810190915260039092020180546001600160a01b03168252600181018054929391929184019161046990611085565b80601f016020809104026020016040519081016040528092919081815260200182805461049590611085565b80156104e25780601f106104b7576101008083540402835291602001916104e2565b820191906000526020600020905b8154815290600101906020018083116104c557829003601f168201915b505050505081526020016002820180546104fb90611085565b80601f016020809104026020016040519081016040528092919081815260200182805461052790611085565b80156105745780601f1061054957610100808354040283529160200191610574565b820191906000526020600020905b81548152906001019060200180831161055757829003601f168201915b505050505081525050915050919050565b8061058f816110d5565b9150506103d0565b5060405162461bcd60e51b81526004016105b0906110fc565b60405180910390fd5b6001600160a01b038316600090815260016020526040902080546105dc90611085565b1590506106215760405162461bcd60e51b81526020600482015260136024820152725573657220616c72656164792065786973747360681b60448201526064016105b0565b604080516060810182526001600160a01b038581168252602082018581529282018490526000805460018101825590805282517f290decd9548b62a8d60345a988386fc84ba6bc95484008f6362f93160ef3e563600390920291820180546001600160a01b031916919093161782559251919290917f290decd9548b62a8d60345a988386fc84ba6bc95484008f6362f93160ef3e564909101906106c59082611173565b50604082015160028201906106da9082611173565b5050506001600160a01b03831660009081526001602052604090206106ff8282611173565b50826001600160a01b03167f8eab1db142a914aff8b515eedb9177bd7effaef6d714c41e30bdf15206778607838360405161073b929190611232565b60405180910390a2505050565b6002602052816000526040600020818154811061076457600080fd5b9060005260206000200160009150915050805461078090611085565b80601f01602080910402602001604051908101604052809291908181526020018280546107ac90611085565b80156107f95780601f106107ce576101008083540402835291602001916107f9565b820191906000526020600020905b8154815290600101906020018083116107dc57829003601f168201915b505050505081565b6001600160a01b0381166000908152600260209081526040808320805482518185028101850190935280835260609492939192909184015b828210156108e557838290600052602060002001805461085890611085565b80601f016020809104026020016040519081016040528092919081815260200182805461088490611085565b80156108d15780601f106108a6576101008083540402835291602001916108d1565b820191906000526020600020905b8154815290600101906020018083116108b457829003601f168201915b505050505081526020019060010190610839565b505050509050919050565b6001600160a01b0382166000908152600160205260409020805461091390611085565b90506000036109345760405162461bcd60e51b81526004016105b0906110fc565b6001600160a01b0382166000908152600260209081526040822080546001810182559083529120016109668282611173565b50816001600160a01b03167f0e3401fdbf980201cc9ca58087d228bce1d399fc15d0de47a4c4d6a06432622a826040516109a09190610dbc565b60405180910390a25050565b6060806060600080805490506001600160401b038111156109cf576109cf610e23565b6040519080825280602002602001820160405280156109f8578160200160208202803683370190505b5060008054919250906001600160401b03811115610a1857610a18610e23565b604051908082528060200260200182016040528015610a4b57816020015b6060815260200190600190039081610a365790505b5060008054919250906001600160401b03811115610a6b57610a6b610e23565b604051908082528060200260200182016040528015610a9e57816020015b6060815260200190600190039081610a895790505b50905060005b600054811015610cb95760008181548110610ac157610ac16110bf565b600091825260209091206003909102015484516001600160a01b0390911690859083908110610af257610af26110bf565b60200260200101906001600160a01b031690816001600160a01b03168152505060008181548110610b2557610b256110bf565b90600052602060002090600302016001018054610b4190611085565b80601f0160208091040260200160405190810160405280929190818152602001828054610b6d90611085565b8015610bba5780601f10610b8f57610100808354040283529160200191610bba565b820191906000526020600020905b815481529060010190602001808311610b9d57829003601f168201915b5050505050838281518110610bd157610bd16110bf565b602002602001018190525060008181548110610bef57610bef6110bf565b90600052602060002090600302016002018054610c0b90611085565b80601f0160208091040260200160405190810160405280929190818152602001828054610c3790611085565b8015610c845780601f10610c5957610100808354040283529160200191610c84565b820191906000526020600020905b815481529060010190602001808311610c6757829003601f168201915b5050505050828281518110610c9b57610c9b6110bf565b60200260200101819052508080610cb1906110d5565b915050610aa4565b5091959094509092509050565b6001602052600090815260409020805461078090611085565b600060208284031215610cf157600080fd5b5035919050565b6000815180845260005b81811015610d1e57602081850181015186830182015201610d02565b506000602082860101526020601f19601f83011685010191505092915050565b6001600160a01b0384168152606060208201819052600090610d6290830185610cf8565b8281036040840152610d748185610cf8565b9695505050505050565b80356001600160a01b0381168114610d9557600080fd5b919050565b600060208284031215610dac57600080fd5b610db582610d7e565b9392505050565b602081526000610db56020830184610cf8565b602080825282516001600160a01b03168282015282015160606040830152600090610dfd6080840182610cf8565b90506040840151601f19848303016060850152610e1a8282610cf8565b95945050505050565b634e487b7160e01b600052604160045260246000fd5b600082601f830112610e4a57600080fd5b81356001600160401b0380821115610e6457610e64610e23565b604051601f8301601f19908116603f01168101908282118183101715610e8c57610e8c610e23565b81604052838152866020858801011115610ea557600080fd5b836020870160208301376000602085830101528094505050505092915050565b600080600060608486031215610eda57600080fd5b610ee384610d7e565b925060208401356001600160401b0380821115610eff57600080fd5b610f0b87838801610e39565b93506040860135915080821115610f2157600080fd5b50610f2e86828701610e39565b9150509250925092565b60008060408385031215610f4b57600080fd5b610f5483610d7e565b946020939093013593505050565b600082825180855260208086019550808260051b84010181860160005b84811015610fad57601f19868403018952610f9b838351610cf8565b98840198925090830190600101610f7f565b5090979650505050505050565b602081526000610db56020830184610f62565b60008060408385031215610fe057600080fd5b610fe983610d7e565b915060208301356001600160401b0381111561100457600080fd5b61101085828601610e39565b9150509250929050565b606080825284519082018190526000906020906080840190828801845b8281101561105c5781516001600160a01b031684529284019290840190600101611037565b505050838103828501526110708187610f62565b9150508281036040840152610d748185610f62565b600181811c9082168061109957607f821691505b6020821081036110b957634e487b7160e01b600052602260045260246000fd5b50919050565b634e487b7160e01b600052603260045260246000fd5b6000600182016110f557634e487b7160e01b600052601160045260246000fd5b5060010190565b6020808252600e908201526d155cd95c881b9bdd08199bdd5b9960921b604082015260600190565b601f82111561116e57600081815260208120601f850160051c8101602086101561114b5750805b601f850160051c820191505b8181101561116a57828155600101611157565b5050505b505050565b81516001600160401b0381111561118c5761118c610e23565b6111a08161119a8454611085565b84611124565b602080601f8311600181146111d557600084156111bd5750858301515b600019600386901b1c1916600185901b17855561116a565b600085815260208120601f198616915b82811015611204578886015182559484019460019091019084016111e5565b50858210156112225787850151600019600388901b60f8161c191681555b5050505050600190811b01905550565b6040815260006112456040830185610cf8565b8281036020840152610e1a8185610cf856fea26469706673582212202219c490b92265c03f6ef58b8c216681f477617644d3e6f5e681018db445061064736f6c63430008130033",
  "devdoc": {
    "kind": "dev",
    "methods": {},
    "version": 1
  },
  "userdoc": {
    "kind": "user",
    "methods": {},
    "version": 1
  },
  "storageLayout": {
    "storage": [
      {
        "astId": 12,
        "contract": "contracts/UserKeyStorage.sol:UserKeyStorage",
        "label": "userKeys",
        "offset": 0,
        "slot": "0",
        "type": "t_array(t_struct(UserKeyInfo)8_storage)dyn_storage"
      },
      {
        "astId": 16,
        "contract": "contracts/UserKeyStorage.sol:UserKeyStorage",
        "label": "userToKey",
        "offset": 0,
        "slot": "1",
        "type": "t_mapping(t_address,t_string_storage)"
      },
      {
        "astId": 21,
        "contract": "contracts/UserKeyStorage.sol:UserKeyStorage",
        "label": "userMessages",
        "offset": 0,
        "slot": "2",
        "type": "t_mapping(t_address,t_array(t_string_storage)dyn_storage)"
      }
    ],
    "types": {
      "t_address": {
        "encoding": "inplace",
        "label": "address",
        "numberOfBytes": "20"
      },
      "t_array(t_string_storage)dyn_storage": {
        "base": "t_string_storage",
        "encoding": "dynamic_array",
        "label": "string[]",
        "numberOfBytes": "32"
      },
      "t_array(t_struct(UserKeyInfo)8_storage)dyn_storage": {
        "base": "t_struct(UserKeyInfo)8_storage",
        "encoding": "dynamic_array",
        "label": "struct UserKeyStorage.UserKeyInfo[]",
        "numberOfBytes": "32"
      },
      "t_mapping(t_address,t_array(t_string_storage)dyn_storage)": {
        "encoding": "mapping",
        "key": "t_address",
        "label": "mapping(address => string[])",
        "numberOfBytes": "32",
        "value": "t_array(t_string_storage)dyn_storage"
      },
      "t_mapping(t_address,t_string_storage)": {
        "encoding": "mapping",
        "key": "t_address",
        "label": "mapping(address => string)",
        "numberOfBytes": "32",
        "value": "t_string_storage"
      },
      "t_string_storage": {
        "encoding": "bytes",
        "label": "string",
        "numberOfBytes": "32"
      },
      "t_struct(UserKeyInfo)8_storage": {
        "encoding": "inplace",
        "label": "struct UserKeyStorage.UserKeyInfo",
        "members": [
          {
            "astId": 3,
            "contract": "contracts/UserKeyStorage.sol:UserKeyStorage",
            "label": "userAddress",
            "offset": 0,
            "slot": "0",
            "type": "t_address"
          },
          {
            "astId": 5,
            "contract": "contracts/UserKeyStorage.sol:UserKeyStorage",
            "label": "username",
            "offset": 0,
            "slot": "1",
            "type": "t_string_storage"
          },
          {
            "astId": 7,
            "contract": "contracts/UserKeyStorage.sol:UserKeyStorage",
            "label": "encryptedKey",
            "offset": 0,
            "slot": "2",
            "type": "t_string_storage"
          }
        ],
        "numberOfBytes": "96"
      }
    }
  }
}